:020000040000FA
:1000000001288316031306309F00FF308500870107
:1000100083120313FF3085008701831203130C3012
:10002000970083120313831203130C309D00831275
:1000300003138312031306309200831203138316F3
:1000400003133130920083120313950183120313BB
:100050009B0105192E288519402829284E20643037
:100060001502031929283A2064301B020319292894
:100070003D20292805309507080005309B0708001A
:100080004E20003015020319292805309502003052
:100090001B020319292805309B022928FF30A000E4
:0E00A000FF30A100A10B5228A00B5028080031
:02400E00313F40
:00000001FF
